:100000000C9462000C948A000C948A000C948A0070
:100010000C948A000C948A000C948A000C94820739
:100020000C948A000C948A000C948A000C94A70704
:100030000C948A000C948A000C948A000C948A0018
:100040000C941D060C948A000C94EB050C94C505C9
:100050000C948A000C948A000C948A000C948A00F8
:100060000C9467060C948A0000000000240027000E
:100070002A0000000000250028002B0000000008D6
:10008000000201000003040700000000000000005F
:1000900000000000230026002900040404040404D6
:1000A0000404020202020202030303030303010227
:1000B00004081020408001020408102001020408F6
:1000C0001020A80811241FBECFEFD8E0DEBFCDBF9F
:1000D00011E0A0E0B1E0EAE0FFE102C005900D927E
:1000E000A03BB107D9F723E0A0EBB1E001C01D921E
:1000F000AC30B207E1F710E0C2E6D0E004C02197CF
:10010000FE010E947D0FC136D107C9F70E94320956
:100110000C94830F0C940000AF92BF92CF92DF92A9
:10012000EF92FF920F931F93CF93DF936C017B01AC
:100130008B01040F151FEB015E01AE18BF08C0173D
:10014000D10759F06991D601ED91FC910190F081B0
:10015000E02DC6010995892B79F7C501DF91CF9173
:100160001F910F91FF90EF90DF90CF90BF90AF90D5
:100170000895FC01538D448D252F30E0842F90E0AD
:10018000821B930B541710F0CF9608950197089592
:10019000FC01918D828D981761F0A28DAE0FBF2F5B
:1001A000B11D5D968C91928D9F5F9F73928F90E0B1
:1001B00008958FEF9FEF0895FC01918D828D981720
:1001C00031F0828DE80FF11D858D90E008958FEF5D
:1001D0009FEF0895FC01918D228D892F90E0805C26
:1001E0009F4F821B91098F73992708958FE292E0A8
:1001F0000E94EA0021E0892B09F420E0822F089573
:1002000080E090E0892B29F00E94F60081110C9487
:1002100000000895FC01A48DA80FB92FB11DA35AA9
:10022000BF4F2C91848D90E001968F739927848F16
:10023000A689B7892C93A089B1898C918370806439
:100240008C93938D848D981306C00288F389E02DDA
:1002500080818F7D80830895EF92FF920F931F938B
:10026000CF93DF93EC0181E0888F9B8D8C8D981369
:100270001AC0E889F989808185FF15C09FB7F89475
:10028000EE89FF896083E889F989808183708064C1
:1002900080839FBF81E090E0DF91CF911F910F910C
:1002A000FF90EF900895F62E0B8D10E00F5F1F4F1B
:1002B0000F731127E02E8C8D8E110CC00FB607FC2A
:1002C000FACFE889F989808185FFF5CFCE010E94B8
:1002D0000A01F1CFEB8DEC0FFD2FF11DE35AFF4F1B
:1002E000F0829FB7F8940B8FEA89FB898081806246
:1002F000CFCFCF93DF93EC01888D8823B9F0AA8903
:10030000BB89E889F9898C9185FD03C0808186FDD0
:100310000DC00FB607FCF7CF8C9185FFF2CF80811F
:1003200085FFEDCFCE010E940A01E9CFDF91CF9189
:10033000089590E0FC01E458FF4F2491FC01E25540
:10034000FF4F3491FC01E656FF4FE491EE23C9F0D4
:10035000222339F0233001F1A8F4213019F12230A1
:1003600029F1F0E0EE0FFF1FEE58FF4FA591B49179
:100370008FB7F894EC91611126C030953E233C93E1
:100380008FBF08952730A9F02830C9F0243049F7ED
:10039000809180008F7D03C0809180008F77809353
:1003A0008000DFCF84B58F7784BDDBCF84B58F7DB0
:1003B000FBCF8091B0008F778093B000D2CF809137
:1003C000B0008F7DF9CF3E2BDACFCF93DF9390E053
:1003D000FC01E255FF4F249186569F4FFC0184910A
:1003E0008823D1F090E0880F991FFC01E859FF4F56
:1003F000A591B491FC01EE58FF4FC591D4916111C4
:100400000EC09FB7F8948C91E22FE0958E238C93C9
:100410002881E223E8839FBFDF91CF9108958FB7B2
:10042000F894EC91E22BEC938FBFF6CF3FB7F894A2
:1004300080912B0290912C02A0912D02B0912E025E
:1004400026B5A89B05C02F3F19F00196A11DB11D2F
:100450003FBFBA2FA92F982F8827BC01CD01620F6B
:10046000711D811D911D42E0660F771F881F991F26
:100470004A95D1F708952091DC01260F3327331FC9
:1004800021323105ECF420910002FC0190E080E083
:10049000243069F082E00895A091DC012191AC0143
:1004A00044545E4FA40FB52FB11D2C9301968617AF
:1004B00098F38091DC01680F6093DC0180E008957F
:1004C00081E0089508958FEF9FEF08958FEF9FEFDC
:1004D00008958091B50190E09195819591090895D5
:1004E000CF93DF93CB01EA01642F0E943B02CE0140
:1004F000DF91CF910895CF93DF931F92CDB7DEB7F1
:10050000698361E0CE0101960E943B0281E090E0A8
:100510000F90DF91CF910895089590E080E00895C5
:100520000F931F9390E0FC01E255FF4F6491FC0193
:10053000E656FF4FE491F0E0EE0FFF1FE057FF4F4C
:100540008591949100E412E42FE030E0462F0E9460
:100550006308611571058105910529F06F5F7F4F73
:100560008F4F9F4F9F701F910F910895CF93DF93EF
:10057000EC0160E08E810E94990161E08E810E9411
:10058000990160E08E810E9499018BE891E00197CA
:10059000F1F7DF91CF910895CF92DF92EF92FF9222
:1005A0000F931F93CF93DF936C017C0187E0E80EDC
:1005B000F11CD0E0C0E0062F10E0B8010C2E02C004
:1005C000759567950A94E2F76170F70181917F0153
:1005D0000E9499012196C430D10579F7C601DF91B7
:1005E000CF911F910F91FF90EF90DF90CF900C94DF
:1005F000B602CF92DF92EF92FF920F931F93CF93A9
:10060000DF93EC01F62E642F8C810E9499018D817D
:100610008F3F19F060E00E9499010F2D10E08F8547
:1006200084FF25C06E0187E0C80ED11CF12CE12C9F
:10063000B8010E2C02C0759567950A94E2F76170B7
:10064000F60181916F010E949901FFEFEF1AFF0AF5
:1006500088E0E816F10461F7CE01DF91CF911F9198
:100660000F91FF90EF90DF90CF900C94B602B801FD
:1006700084E0759567958A95E1F7CE010E94CC02DA
:100680006F2DCE01DF91CF911F910F91FF90EF90D1
:10069000DF90CF900C94CC0240E0682F84EF92E082
:1006A0000C94F902CF93DF93823029F490910303E5
:1006B000986090930303809307031092080380E4EB
:1006C0008093090380E180930A0380E580930B0304
:1006D00061E08091F8020E94E5018091F9028F3F6C
:1006E00019F061E00E94E50161E08091FA020E9448
:1006F000E501C4EFD2E09E01245F32408091030304
:1007000084FD0BC084E090E021962817390744F45B
:1007100061E08E810E94E501EECF88E090E0F4CFA9
:100720008BE39DE00197F1F760E08091F8020E9471
:10073000990160E08091FA020E9499018091F9028A
:100740008F3F19F060E00E9499018091030384FDBE
:1007500039C063E084EF92E00E94CC02CBE4D6E49F
:10076000CE010197F1F763E084EF92E00E94CC02A2
:100770002197F1F763E084EF92E00E94CC0283E5D9
:1007800092E00197F1F762E084EF92E00E94CC02E0
:100790008091030380620E944C0384E080930403F1
:1007A0008CE00E944C0381E00E944C038BE39FE1AC
:1007B0000197F1F782E08093050386E0DF91CF9106
:1007C0000C944C0380620E944C038BE496E40197E6
:1007D000F1F78091030380620E944C0383E592E06D
:1007E0000197F1F78091030380620E944C03D0CF00
:1007F00041E00E94F90281E090E00895FB01019040
:100800000020E9F73197AF01461B570BDC01ED9152
:10081000FC910280F381E02D09946EE171E08FE29A
:1008200092E00C94FE038F929F92AF92BF92EF9250
:10083000FF920F931F93CF93DF93CDB7DEB7A197AE
:100840000FB6F894DEBF0FBECDBF7C01FA01CB011D
:1008500019A2223008F42AE08E010F5D1F4F822E6C
:10086000912CB12CA12CBF01A50194010E94130D64
:10087000F901CA016A300CF5605DD8016E938D01F3
:10088000232B242B252B79F790E080E0109721F083
:10089000BD01C7010E94FE03A1960FB6F894DEBF0A
:1008A0000FBECDBFDF91CF911F910F91FF90EF90C1
:1008B000BF90AF909F908F900895695CDECFCF93EB
:1008C000DF93BC018FE292E00E94FE03EC010E94E4
:1008D0000D048C0F9D1FDF91CF9108954F925F9271
:1008E0006F927F928F929F92AF92BF92CF92DF9240
:1008F000EF92FF920F931F93CF936B017C01742EA5
:10090000AC019B010E946C0F61E271E0811126C075
:1009100046015701E894B7F82FEF3FEF4FE75FE745
:10092000C501B4010E946C0F81110CC02FEF3FEF85
:100930004FE75FE7C501B4010E94A20D65E271E0D7
:10094000181664F02FEF3FEF4FE75FE4C701B601E1
:100950000E94FA0E1816ACF469E271E08FE292E0A0
:10096000CF911F910F91FF90EF90DF90CF90BF90AC
:10097000AF909F908F907F906F905F904F900C946E
:10098000FE032FEF3FEF4FE75FECC701B6010E9478
:10099000A20D87FDE1CF20E030E0A901C701B6013B
:1009A0000E94A20D10E000E087FF0AC06DE28FE216
:1009B00092E00E942C018C01F7FAF094F7F8F09481
:1009C000C0E060E070E080E09FE37C1641F020E052
:1009D00030E040E251E40E94A70DCF5FF6CFA701BF
:1009E00096010E94360D2B013C010E94190E4B010D
:1009F0005C012AE0BC01A4018FE292E00E94130492
:100A00007C01E00EF11ECC23D1F1C501B4010E949E
:100A1000480E9B01AC01C301B2010E94350D4B0190
:100A20005C016EE28FE292E00E942C01E80EF91E5A
:100A3000C15028F120E030E040E251E4C501B401AA
:100A40000E94FF0E2B013C010E94190E4B01B12C9C
:100A5000A12C2AE0B501A4018FE292E00E941304C8
:100A6000E80EF91EC501B4010E94480E9B01AC01BD
:100A7000C301B2010E94350D4B015C01D9CFC70102
:100A8000CF911F910F91FF90EF90DF90CF90BF908B
:100A9000AF909F908F907F906F905F904F90089550
:100AA0001F93CF93DF9385ED8093BC008091B801B5
:100AB0009091B901A091BA01B091BB010796A11D17
:100AC000B11D23E0B695A795979587952A95D1F7FF
:100AD0002091BC0024FD03C01092000252C040913E
:100AE000B8015091B9016091BA017091BB01452BD9
:100AF000462B472B69F30097A105B10541F02AE287
:100B00002A95F1F700C00197A109B109E1CF8091C1
:100B1000B701C1E0C093B601882399F1D091B80024
:100B20001091BA008091BC008A7B8093BC0060E089
:100B300082E10E94990160E083E10E949901109294
:100B40000002C09302021092010261E082E10E9461
:100B5000990161E083E10E9499018091B9008E7F43
:100B60008093B9008091B9008D7F8093B90088E4AB
:100B70008093B80085E48093BC001093BA00D093B2
:100B8000B800DF91CF911F9108951F920F920FB679
:100B90000F9211242F933F934F935F936F937F9303
:100BA0008F939F93AF93BF93EF93FF938FE292E066
:100BB0000E940A01FF91EF91BF91AF919F918F9198
:100BC0007F916F915F914F913F912F910F900FBE49
:100BD0000F901F9018951F920F920FB60F9211242D
:100BE0002F938F939F93EF93FF93E0913F02F091A8
:100BF00040028081E0914502F091460282FD1BC0D7
:100C00009081809148028F5F8F73209149028217F3
:100C100041F0E0914802F0E0E15DFD4F958F809357
:100C20004802FF91EF919F918F912F910F900FBEEE
:100C30000F901F9018958081F4CF1F920F920FB6DE
:100C40000F9211242F933F938F939F93AF93BF9352
:100C50008091270290912802A0912902B0912A0246
:100C60003091260223E0230F2D3758F50196A11D60
:100C7000B11D209326028093270290932802A0930F
:100C80002902B0932A0280912B0290912C02A0910C
:100C90002D02B0912E020196A11DB11D80932B0251
:100CA00090932C02A0932D02B0932E02BF91AF918E
:100CB0009F918F913F912F910F900FBE0F901F909A
:100CC000189526E8230F0296A11DB11DD2CF1F92C1
:100CD0000F920FB60F9211242F933F934F935F9370
:100CE0006F937F938F939F93AF93BF93EF93FF93F4
:100CF0008091B900887F803609F44AC0F0F58832C7
:100D000009F4A5C018F5803109F499C0B8F4882316
:100D100009F4F5C0883009F492C0FF91EF91BF91BA
:100D2000AF919F918F917F916F915F914F913F9183
:100D30002F910F900FBE0F901F901895883109F4D6
:100D400086C0803251F78093FF0114C0803409F4CB
:100D50009BC040F48033B9F38833F9F68093FF01E8
:100D600085ECAEC0803509F483C0883509F494C0A1
:100D7000883499F60E945005D0CF883909F48AC08A
:100D800038F5883729F050F4883611F0803729F685
:100D900083E0809300021092FE0155C0883809F468
:100DA00079C0803919F0803809F0B7CF8091FE0101
:100DB000803208F06FC0E091FE0181E08E0F8093D9
:100DC000FE018091BB00F0E0E252FE4F80833BC009
:100DD000803B39F0D0F4803A09F477C0883A09F0C2
:100DE0009CCF84E0809300021092DD011092DC0120
:100DF000F0E0E0E009958091DC0181110FC081E015
:100E00008093DC011092BC0109C0803C09F4A8CF9A
:100E1000883C09F4A5CF883B09F07FCFE091DD0144
:100E200081E08E0F8093DD01F0E0E454FE4F80817D
:100E30008093BB009091DD018091DC0129C08091FD
:100E400025028093BB0085EC8093BC0066CF909117
:100E5000240280912302981758F5E091240281E042
:100E60008E0F80932402F0E0ED5FFD4F8081E9CF8B
:100E7000E091240281E08E0F809324028091BB00D8
:100E8000F0E0ED5FFD4F808390912402809123027A
:100E90009817C8F285E8D8CFE091240281E08E0F40
:100EA000809324028091BB00F0E0ED5FFD4F8083D2
:100EB0008091020281115ECF81E08093010284EA79
:100EC0008093BC001092000228CF85EC8093BC0078
:100ED000109200028091FE01803230F4E091FE0118
:100EE000F0E0E252FE4F10826091FE0170E08EED64
:100EF00091E0F0E0E0E009951092FE010ECF109233
:100F0000FF0138CF1F920F920FB60F9211242F932B
:100F10003F934F935F936F937F938F939F93AF9381
:100F2000BF93EF93FF93F0E0E0E00995FF91EF911D
:100F3000BF91AF919F918F917F916F915F914F91F1
:100F40003F912F910F900FBE0F901F9018951F92F9
:100F50000F920FB60F9211242F933F934F935F93ED
:100F60006F937F938F939F93AF93BF93CF93DF93B1
:100F7000EF93FF938091B401C091F002D0E087FF1E
:100F800024C010928500109284008091B4018F5F7C
:100F90008093B4018091B401082E000C990B8C173A
:100FA0009D0724F48091B4018C30C4F180918400B9
:100FB00090918500049680349C4908F47AC0809111
:100FC000840090918500049676C08091B401082E2B
:100FD000000C990B8C179D07C4F6E091B4018E2F7D
:100FE000EE0F990BFC01EE0FFF1FE80FF91FE45302
:100FF000FD4F808186FFC9CFE091B4018E2FEE0FA7
:10100000990BFC01EE0FFF1FE80FF91FE453FD4F92
:10101000808160E08F730E949901B7CF2091840096
:1010200030918500E091B4018E2FEE0F990BFC01F9
:10103000EE0FFF1FE80FF91FE453FD4F81819281EE
:10104000820F931F9093890080938800E091B401F0
:101050008E2FEE0F990BFC01EE0FFF1FE80FF91F0B
:10106000E453FD4F808186FF11C0E091B4018E2FC3
:10107000EE0F990BFC01EE0FFF1FE80FF91FE45371
:10108000FD4F808161E08F730E949901FF91EF9184
:10109000DF91CF91BF91AF919F918F917F916F9190
:1010A0005F914F913F912F910F900FBE0F901F9026
:1010B000189580E49CE990938900809388008FEFD5
:1010C0008093B401E3CFCF92DF92EF92FF920F9320
:1010D0001F93E82FF92F05C001501109210931098B
:1010E00061F1908196239417B9F305C0015011095D
:1010F0002109310911F1908196239413F7CFC12C66
:10110000D12CE12CF12C0AC08FEFC81AD80AE80ABA
:10111000F80A0C151D052E053F0579F08081862300
:10112000841791F36C2D7D2D8E2D9F2D1F910F9186
:10113000FF90EF90DF90CF90089560E070E080E046
:1011400090E01F910F91FF90EF90DF90CF90089566
:10115000CF93109232021092310288EE93E0A0E019
:10116000B0E08093330290933402A0933502B093A1
:10117000360284E091E09093300280932F0285EC58
:1011800090E090933C0280933B0284EC90E090933B
:101190003E0280933D0280EC90E090934002809369
:1011A0003F0281EC90E0909342028093410282ECF6
:1011B00090E0909344028093430286EC90E09093F9
:1011C0004602809345021092480210924902109202
:1011D0004A0210924B021092F7021092F60286E138
:1011E00091E09093F5028093F4028CE08093F802F2
:1011F000CFEFC093F9028BE08093FA0285E08093F1
:10120000FB0284E08093FC0283E08093FD0282E095
:101210008093FE021092FF021092000310920103CD
:10122000109202031092030381E00E945203809106
:10123000F0028C30A0F491E0980F9093F00280932C
:10124000F10290E0FC01EE0FFF1FE80FF91FE453DD
:10125000FD4F88EB9BE092838183CF910895C093EB
:10126000F102FBCF789484B5826084BD84B581603F
:1012700084BD85B5826085BD85B5816085BD809161
:101280006E00816080936E001092810080918100D9
:1012900082608093810080918100816080938100D1
:1012A000809180008160809380008091B100846093
:1012B0008093B1008091B00081608093B0008091F4
:1012C0007A00846080937A0080917A0082608093B3
:1012D0007A0080917A00816080937A0080917A0010
:1012E000806880937A001092C100E0913F02F091F3
:1012F000400282E08083E0913B02F0913C02108248
:10130000E0913D02F0913E028FEC80831092470203
:10131000E0914302F091440286E08083E091410233
:10132000F0914202808180618083E0914102F091DE
:101330004202808188608083E0914102F091420204
:10134000808180688083E0914102F0914202808137
:101350008F7D80838091F1028C3008F051C061E074
:101360008CE00E94E5018091F102282F30E0F90124
:10137000EE0FFF1FE20FF31FE453FD4F9081907CAF
:101380009C6090831092F2021092F3022CE0622F84
:101390000E94710F829FB001112430E020E0AB0168
:1013A000420F531FFA01EE0FFF1FE40FF51FE45326
:1013B000FD4F908196FD16C02F5F3F4F2C303105B9
:1013C00071F781110FC01092800082E0809381003C
:1013D0001092850010928400B19A80916F00826013
:1013E00080936F00E091F1028E2F90E0FC01EE0FF0
:1013F000FF1FE80FF91FE453FD4F80818064808355
:1014000060E08DE00E94E50161E08AE00E94E50174
:1014100060E088E00E94E50161E089E00E94E5016A
:1014200060E086E00E94E50161E087E00E94E5015E
:1014300061E08BE00E94E50161E082E00E94E5014D
:1014400061E083E00E94E50161E084E00E94E50143
:1014500061E085E00E94E50160E08EE00E94E50128
:1014600081E00E944C038BE39FE10197F1F782E05A
:101470000E94520303E010E0C3E2D0E090E4292E82
:1014800024E6322E20927C0080917A008064809342
:101490007A0080917A0086FDFCCFE0907800F09091
:1014A0007900E1E0809107038111E0E0E195F0E04F
:1014B000EC50FD4F848980680E944C036DE271E01E
:1014C00084EF92E00E94FE0347010F2C000CAA0853
:1014D000BB082AE0B501A401B7FE0EC041E06DE2F1
:1014E00084EF92E00E94F90244275527BA01481977
:1014F00059096A097B092AE084EF92E00E941304EB
:10150000E09107032BEFE216F10444F1E23020F5FD
:10151000E150F0E0EC50FD4F84898F5F80680E94BD
:101520004C036BE371E084EF92E00E94FE0361E004
:101530008BE00E94E501E7E8F0E08491833009F454
:1015400051C1E0F4813071F1823009F446C160E0AC
:101550008BE00E9499012AC0E1E0DBCFE23060F429
:10156000E150F0E0EC50FD4F84898F5F80680E946D
:101570004C0369E471E0D7CFE1E0F3CF873009F4A1
:101580003DC1883009F442C1843009F78091800060
:10159000806280938000E4E6F0E0F0938B00E093BB
:1015A0008A0004C084B5806884BD37BC61E082E0F5
:1015B0000E94990160E083E00E94990161E084E06B
:1015C0000E94990160E085E00E94990160E087E057
:1015D0000E949901C8010197F1F761E087E00E943C
:1015E0009901CE010197F1F760E087E00E9499012F
:1015F00086E00E9490020E94480E20E030E842E21D
:1016000054E40E94A70D4B015C0160E089E00E9458
:101610009901C8010197F1F761E089E00E94990101
:10162000CE010197F1F760E089E00E94990188E01E
:101630000E9490020E94480E20E030E842E254E40A
:101640000E94A70D2B013C0160E08AE00E949901F5
:10165000C8010197F1F761E08AE00E949901CE018B
:101660000197F1F760E08AE00E9499018DE00E9405
:1016700090020E94480E20E030E842E254E40E94CA
:10168000A70D6B017C010E940D0487E591E00E948B
:101690005F040E940D0442E0C701B6010E946E047F
:1016A0006FE771E08FE292E00E94FE0342E0C30127
:1016B000B2010E946E046FE771E08FE292E00E9437
:1016C000FE0342E0C501B4010E946E0420E030E058
:1016D00048E452E4C301B2010E94FA0E1816B4F4B1
:1016E00061E082E00E94990161E083E00E9499013B
:1016F00061E084E00E94990161E085E00E94990127
:101700000E940D0488E891E00E945F0420E030E030
:1017100048E452E4C501B4010E94A20D20E030E08B
:1017200048E452E487FF7AC0C701B6010E94FA0E6E
:1017300018160CF000C120E030E048E452E4C30188
:10174000B2010E94A20D87FFF6C060E082E00E9415
:10175000990161E083E00E94990161E084E00E94C8
:10176000990160E085E00E9499010E940D0485E9DD
:1017700091E00E945F040E9416024B015C0188EE1A
:10178000C82E83E0D82EE12CF12C0E941602681995
:1017900079098A099B09683E734081059105A8F380
:1017A000F1E0CF1AD108E108F10828EE820E23E01B
:1017B000921EA11CB11CC114D104E104F10429F74B
:1017C00080E090E0892B09F45DCE0E94F60088232A
:1017D00009F454CE0E94000051CE84B5806284BDCD
:1017E00038BCE4CE8091800080688093800084E6DD
:1017F00090E09093890080938800D8CE8091B000CB
:1018000080688093B0003092B300D0CE8091B00059
:1018100080628093B0003092B400C8CEC501B4019C
:101820000E94FA0E18160CF054C020E030E048E494
:1018300052E4C701B6010E94A20D87FF55C020E007
:1018400030E048E452E4C301B2010E94A20D87FFD8
:10185000D8C061E082E00E94990160E083E00E94CC
:10186000990160E084E00E94990161E085E00E94B6
:1018700099010E940D048FE991E07BCFA5019401AD
:10188000C301B2010E94A20D81111FC060E070E08F
:1018900080E89FE3A70196010E94A20D81116BCF02
:1018A00060E082E00E94990160E083E00E9499017B
:1018B00060E084E00E94990160E085E00E94990167
:1018C0000E940D048AEA91E054CF60E070E0CB0101
:1018D000E1CF20E030E048E452E4C501B4010E94C9
:1018E000FA0E18160CF047CF20E030E048E452E43E
:1018F000C701B6010E94FA0E18160CF03CCF20E08A
:1019000030E048E452E4C301B2010E94A20D87FF17
:1019100032CFA5019401C701B6010E94FA0E181634
:101920000CF413CFA5019401C701B6010E94A20DCA
:1019300087FD8FCF20CF20E030E048E452E4C5019E
:10194000B4010E94FA0E18160CF462C020E030E0D8
:1019500048E452E4C701B6010E94A20D87FFB9CF47
:1019600020E030E048E452E4C301B2010E94A20D3D
:1019700087FFAFCFA5019401C701B6010E94A20D58
:1019800087FF08C0A5019401C301B2010E94A20D06
:1019900087FD5FCFA5019401C701B6010E94FA0E31
:1019A00018164CF4A3019201C701B6010E94FA0E69
:1019B00018160CF4CACEA5019401C301B2010E940D
:1019C000FA0E18160CF05ACFA3019201C701B60106
:1019D0000E94A20D87FF79CF61E082E00E94990109
:1019E00061E083E00E94990161E084E00E94990136
:1019F00061E085E00E9499010E940D0488E891E071
:101A0000B8CE20E030E048E452E4C501B401A4CFF0
:101A100020E030E048E452E4C701B6010E94A20D84
:101A200087FD0DCF93CFA1E21A2EAA1BBB1BFD0190
:101A30000DC0AA1FBB1FEE1FFF1FA217B307E407AD
:101A4000F50720F0A21BB30BE40BF50B661F771F05
:101A5000881F991F1A9469F76095709580959095E5
:101A60009B01AC01BD01CF0108955058BB27AA27A7
:101A70000E944D0D0C94C00E0E94B20E38F00E94D0
:101A8000B90E20F039F49F3F19F426F40C94AF0EF0
:101A90000EF4E095E7FB0C94A90EE92F0E94D10EFD
:101AA00058F3BA17620773078407950720F079F493
:101AB000A6F50C94F30E0EF4E0950B2EBA2FA02D84
:101AC0000B01B90190010C01CA01A0011124FF27EB
:101AD000591B99F0593F50F4503E68F11A16F040E6
:101AE000A22F232F342F4427585FF3CF46953795E5
:101AF0002795A795F0405395C9F77EF41F16BA0BAA
:101B0000620B730B840BBAF09150A1F0FF0FBB1F57
:101B1000661F771F881FC2F70EC0BA0F621F731FA0
:101B2000841F48F4879577956795B795F7959E3FFD
:101B300008F0B0CF9395880F08F09927EE0F97958E
:101B4000879508950E94850E08F481E008950E940B
:101B5000BB0D0C94C00E0E94B90E58F00E94B20E3C
:101B600040F029F45F3F29F00C94A90E51110C9418
:101B7000F40E0C94AF0E0E94D10E68F39923B1F3CA
:101B8000552391F3951B550BBB27AA2762177307A3
:101B9000840738F09F5F5F4F220F331F441FAA1F37
:101BA000A9F335D00E2E3AF0E0E832D091505040F3
:101BB000E695001CCAF72BD0FE2F29D0660F771FA1
:101BC000881FBB1F261737074807AB07B0E809F087
:101BD000BB0B802DBF01FF2793585F4F3AF09E3F0C
:101BE000510578F00C94A90E0C94F40E5F3FE4F3C9
:101BF000983ED4F3869577956795B795F7959F5F4F
:101C0000C9F7880F911D9695879597F90895E1E09A
:101C1000660F771F881FBB1F621773078407BA07F9
:101C200020F0621B730B840BBA0BEE1F88F7E09554
:101C300008950E94D90E88F09F5798F0B92F9927E0
:101C4000B751B0F0E1F0660F771F881F991F1AF0A7
:101C5000BA95C9F714C0B13091F00E94F30EB1E00B
:101C600008950C94F30E672F782F8827B85F39F00A
:101C7000B93FCCF3869577956795B395D9F73EF440
:101C800090958095709561957F4F8F4F9F4F0895E8
:101C9000E89409C097FB3EF4909580957095619506
:101CA0007F4F8F4F9F4F9923A9F0F92F96E9BB27BC
:101CB0009395F695879577956795B795F111F8CF38
:101CC000FAF4BB0F11F460FF1BC06F5F7F4F8F4FA3
:101CD0009F4F16C0882311F096E911C0772321F099
:101CE0009EE8872F762F05C0662371F096E8862F31
:101CF00070E060E02AF09A95660F771F881FDAF788
:101D0000880F9695879597F90895990F0008550FB4
:101D1000AA0BE0E8FEEF16161706E807F907C0F071
:101D200012161306E407F50798F0621B730B840B79
:101D3000950B39F40A2661F0232B242B252B21F453
:101D400008950A2609F4A140A6958FEF811D811DF3
:101D5000089597F99F6780E870E060E008959FEF2D
:101D600080EC089500240A94161617061806090632
:101D7000089500240A941216130614060506089501
:101D8000092E0394000C11F4882352F0BB0F40F489
:101D9000BF2B11F460FF04C06F5F7F4F8F4F9F4FC9
:101DA000089557FD9058440F551F59F05F3F71F04B
:101DB0004795880F97FB991F61F09F3F79F08795B2
:101DC0000895121613061406551FF2CF4695F1DF3B
:101DD00008C0161617061806991FF1CF86957105CB
:101DE000610508940895E894BB2766277727CB01FF
:101DF00097F908950E94850E08F48FEF08950E94C8
:101E0000120F0C94C00E0E94B20E38F00E94B90E50
:101E100020F0952311F00C94A90E0C94AF0E112410
:101E20000C94F40E0E94D10E70F3959FC1F3950FA0
:101E300050E0551F629FF001729FBB27F00DB11D4E
:101E4000639FAA27F00DB11DAA1F649F6627B00DDE
:101E5000A11D661F829F2227B00DA11D621F739FC7
:101E6000B00DA11D621F839FA00D611D221F749FD5
:101E70003327A00D611D231F849F600D211D822F1C
:101E8000762F6A2F11249F5750409AF0F1F0882343
:101E90004AF0EE0FFF1FBB1F661F771F881F915070
:101EA0005040A9F79E3F510580F00C94A90E0C9468
:101EB000F40E5F3FE4F3983ED4F3869577956795EB
:101EC000B795F795E7959F5FC1F7FE2B880F911D9A
:101ED0009695879597F908950E94850E880B990B22
:101EE0000895991B79E004C0991F961708F0961B76
:101EF000881F7A95C9F780950895EE0FFF1F05900A
:0A1F0000F491E02D0994F894FFCF4E
:101F0A00000000002C018C00B9007901EA00C80029
:101F1A00DC0000000000F8038C008D028C020D0A20
:101F2A00006E616E00696E66006F766600416972C6
:101F3A00205175616C6974793A20004151204C65D1
:101F4A0076656C2048494748004151204C657665C2
:101F5A006C20476F6F640044697374616E63652017
:101F6A0066726F6D20746865206F626A656374209B
:101F7A00746F20656163682073656E736F720020E9
:101F8A0020202020202020004D4F564520464F5229
:101F9A0057415244004D4F5645204C454654004D3A
:101FAA004F56452052494748540053544F50000059
:00000001FF
